:100000000C945D000C9485000C9485000C94850084
:100010000C9485000C9485000C9485000C9485004C
:100020000C9485000C9485000C9485000C9485003C
:100030000C9485000C9485000C9485000C9485002C
:100040000C9446040C9485000C9414040C94EE0358
:100050000C9485000C9485000C9485000C9485000C
:100060000C9485000C94850000000008000201003B
:100070000003040700000000000000000000000072
:10008000250028002B0000000000240027002A0083
:10009000040404040404040402020202020203032E
:1000A0000303030301020408102040800102040836
:1000B0001020010204081020900411241FBECFEF6D
:1000C000D8E0DEBFCDBF22E0A0E5B1E001C01D92C7
:1000D000A73DB207E1F711E0A0E0B1E0E0EAF8E106
:1000E00002C005900D92A035B107D9F710E0CDE51B
:1000F000D0E004C02197FE010E942D0ACC35D10723
:10010000C9F70E94D8040C944E0C0C94000090E0A7
:10011000FC01EC55FF4F2491FC01E057FF4F849107
:10012000882399F090E0880F991FFC01EA57FF4F50
:10013000A591B491FC01E458FF4F859194918FB73C
:10014000F894EC91E22BEC938FBF08952FB7F894BD
:100150008091250290912602A0912702B091280259
:100160002FBF8093310290933202A0933302B09359
:100170003402E0912902F0912A020284F385E02DF5
:1001800089E292E0099597FF26C02FB7F8948091F5
:10019000250290912602A0912702B09128022FBF3C
:1001A00040913102509132026091330270913402D9
:1001B000841B950BA60BB70B40912D0250912E027C
:1001C00060912F027091300284179507A607B70738
:1001D00080F28FEF9FEF0895CF92DF92EF92FF9220
:1001E0000F931F93CF93DF936C017A018B01C0E0D3
:1001F000D0E0CE15DF0589F0D8016D918D01D601D3
:10020000ED91FC910190F081E02DC6010995892BBB
:1002100011F47E0102C02196ECCFC701DF91CF918E
:100220001F910F91FF90EF90DF90CF900895089568
:1002300080E090E00895FC01538D448D252F30E03F
:10024000842F90E0821B930B541710F0CF960895E3
:1002500001970895FC01918D828D981761F0828D30
:10026000DF01A80FB11D5D968C91928D9F5F9F73EA
:10027000928F90E008958FEF9FEF0895FC01918D8C
:10028000828D981731F0828DE80FF11D858D90E0F9
:1002900008958FEF9FEF0895FC01918D228D892F96
:1002A00090E0805C9F4F821B91098F73992708957E
:1002B00089E292E00E944C0121E0892B09F420E0C0
:1002C000822F0895FC01848DDF01A80FB11DA35A70
:1002D000BF4F2C91848D90E001968F739927848F66
:1002E000A689B7892C93A089B1898C9180648C935D
:1002F000938D848D981306C00288F389E02D808148
:100300008F7D80830895EF92FF920F931F93CF9379
:10031000DF93EC0181E0888F9B8D8C8D981305C055
:10032000E889F989808185FD24C0F62E0B8D10E0C7
:100330000F5F1F4F0F731127E02E8C8DE8120CC03A
:100340000FB607FCFACFE889F989808185FFF5CFE0
:10035000CE010E946201F1CF8B8DFE01E80FF11DED
:10036000E35AFF4FF0820B8FEA89FB89808180621C
:1003700007C0EE89FF896083E889F98980818064FC
:10038000808381E090E0DF91CF911F910F91FF90EA
:10039000EF900895CF93DF93EC01888D8823C9F007
:1003A000EA89FB89808185FD05C0A889B9898C917E
:1003B00086FD0FC00FB607FCF5CF808185FFF2CF19
:1003C000A889B9898C9185FFEDCFCE010E94620189
:1003D000E7CFDF91CF91089580E090E0892B29F05D
:1003E0000E94580181110C940000089590E0FC01D6
:1003F000E859FF4F3491FC01EC55FF4F2491FC016B
:10040000E057FF4FE491EE2309F43BC0332339F169
:10041000333091F038F43130A9F0323001F584B541
:100420008F7D12C0373091F03830A1F03430B9F4FC
:10043000809180008F7D03C0809180008F778093B2
:1004400080000DC084B58F7784BD09C08091B00055
:100450008F7703C08091B0008F7D8093B000F0E073
:10046000EE0FFF1FE458FF4FA591B4918FB7F8949A
:10047000EC91611103C020952E2301C02E2B2C93EB
:100480008FBF08951F93CF93DF93182FC6ECD2E050
:1004900088810E94870089810E9487008A810E944A
:1004A00087008B810E9487008C810E9487008D814C
:1004B0000E9487008E810E9487008F810E948700A2
:1004C000612F617088810E94F60111FB662760F937
:1004D00089810E94F60112FB662760F98A810E94D9
:1004E000F60113FB662760F98B810E94F60114FB6D
:1004F000662760F98C810E94F60115FB662760F97A
:100500008D810E94F60116FB662760F98E810E949C
:10051000F601612F661F6627661F8F81DF91CF91DD
:100520001F910C94F601CF93DF930E944202C6EC18
:10053000D2E060E088850E94F60160E08B850E9431
:10054000F60160E089850E94F60161E08B850E94DA
:10055000F60161E089850E94F60161E08885DF91FE
:10056000CF910C94F601CF93DF930E944202C6EC28
:10057000D2E060E089850E94F60160E08B850E94F0
:10058000F60161E089850E94F60161E08B85DF91CB
:10059000CF910C94F601EF92FF921F93CF93DF93CC
:1005A0001F92CDB7DEB7182F82E499830E94B30261
:1005B000E12E9981F92EF70181917F01882319F0AD
:1005C0000E949302F8CF0F90DF91CF911F91FF907F
:1005D000EF9008951F93CF93DF931F92CDB7DEB7AF
:1005E000182F86E499830E94B302812F0E94930200
:1005F0009981892F0F90DF91CF911F910C949302D5
:10060000CF93DF9380E090E00E94EA0282E40E94B0
:10061000B302C0EBD4E080E20E9493022197D9F7A5
:10062000DF91CF9108953FB7F89480915101909157
:100630005201A0915301B091540126B5A89B05C069
:100640002F3F19F00196A11DB11D3FBFBA2FA92F51
:10065000982F8827820F911DA11DB11DBC01CD01CE
:1006600042E0660F771F881F991F4A95D1F70895BA
:100670008F929F92AF92BF92CF92DF92EF92FF92B2
:100680000E9413034B015C0182E3C82ED12CE12CA4
:10069000F12C0E941303DC01CB0188199909AA09E6
:1006A000BB09883E9340A105B10558F021E0C21A6C
:1006B000D108E108F10888EE880E83E0981EA11C9D
:1006C000B11CC114D104E104F10419F7FF90EF90BB
:1006D000DF90CF90BF90AF909F908F90089500973C
:1006E00069F0FC0101900020E9F73197AF01481B48
:1006F000590BBC0189E292E00C94EC0080E090E0A0
:100700000895CF93DF930E946F03EC0188E191E09D
:100710000E946F038C0F9D1FDF91CF9108950F935F
:100720001F93CF93DF9361157105C1F0FC01C48164
:10073000D581209719F4FB01108210C0C832D10571
:1007400010F0C8E2D0E08B01FC0160817181AE0144
:10075000C8010E943F0CC00FD11F1882DF91CF91BA
:100760001F910F910895CF93DF9385E591E0EC0100
:10077000A99648E250E0BE010E943F0CCE01C25251
:10078000D240A9F7DF91CF9108950E942A0C0F93D0
:100790001F93CF93DF93EC0188819981009729F013
:1007A0002A813B812617370788F48B016F5F7F4FC3
:1007B0000E94600B009761F0998388831B830A83F2
:1007C0002C813D81232B11F4FC01108281E001C0BA
:1007D00080E0DF91CF911F910F9108951F920F92AA
:1007E0000FB60F9211242F933F934F935F936F9304
:1007F0007F938F939F93AF93BF93EF93FF9389E280
:1008000092E00E946201FF91EF91BF91AF919F91A1
:100810008F917F916F915F914F913F912F910F90A9
:100820000FBE0F901F9018951F920F920FB60F9248
:1008300011242F938F939F93EF93FF93E0913902AD
:10084000F0913A028081E0913F02F091400282FDF6
:1008500012C09081809142028F5F8F73209143027A
:10086000821751F0E0914202F0E0E75DFD4F958F75
:100870008093420201C08081FF91EF919F918F91FF
:100880002F910F900FBE0F901F9018951F920F92EF
:100890000FB60F9211242F933F938F939F93AF9393
:1008A000BF938091250290912602A0912702B091DA
:1008B00028023091500123E0230F2D3720F40196B8
:1008C000A11DB11D05C026E8230F0296A11DB11D73
:1008D000209350018093250290932602A093270233
:1008E000B09328028091510190915201A09153013F
:1008F000B09154010196A11DB11D809351019093B7
:100900005201A0935301B0935401BF91AF919F91B5
:100910008F913F912F910F900FBE0F901F901895C0
:10092000E9E2F2E01382128288EE93E0A0E0B0E008
:1009300084839583A683B7838AE091E09183808343
:1009400085EC90E09587848784EC90E09787868794
:1009500080EC90E0918B808B81EC90E0938B828B8C
:1009600082EC90E0958B848B86EC90E0978B868B65
:10097000118E128E138E148EE6ECF2E0108281E05E
:10098000818382E0828383E0838384E0848385E0C3
:10099000858386E0868387E0878388E0828789E095
:1009A00081878AE080878BE083878CE08487089545
:1009B000CF93DF93CDB7DEB7A3970FB6F894DEBF22
:1009C0000FBECDBF789484B5826084BD84B581604C
:1009D00084BD85B5826085BD85B5816085BD80910A
:1009E0006E00816080936E00109281008091810082
:1009F000826080938100809181008160809381007A
:100A0000809180008160809380008091B10084603B
:100A10008093B1008091B00081608093B00080919C
:100A20007A00846080937A0080917A00826080935B
:100A30007A0080917A00816080937A0080917A00B8
:100A4000806880937A001092C10025E531E040E291
:100A500080E090E0F901E80FF91F408301968832A9
:100A60009105C1F7275D3F4F82E02232380781F7B9
:100A70008EE08093C6028FE08093C70261E0809190
:100A8000D1020E94F60161E08091CF020E94F6013E
:100A900061E08091D0020E94F60161E08091CE0277
:100AA0000E94F60161E08091D2020E94F6018091DD
:100AB000D1020E9487008091D2020E94870080911B
:100AC000CE020E9487008091CF020E948700809111
:100AD000D0020E94870060E08091D2020E94F6015D
:100AE0000E94380361E08091D2020E94F6010E94C8
:100AF000380380E40E94B3028BE99FE00197F1F78D
:100B000080E30E94930287E80E94930287E00E949C
:100B1000930287E20E9493028AE50E9493028FEE7D
:100B20000E94930288E20E94930280E00E94930256
:100B300084E40E94B30280E00E94930280E00E945D
:100B400093028FEE0E94930280EB0E94930284E056
:100B50000E9493028FEE0E94930280E00E94930213
:100B600080E00E94930280E00E94930280E00E9455
:100B700093028DE50E94B30284E00E94930287E015
:100B80000E9493028CE50E94B30280E00E949302CF
:100B900080E70E9493028CE40E94B3028AE50E94DF
:100BA000B30280E00E9493028BE50E94B30281E0D1
:100BB0000E94930289E50E94B30286E10E9493029B
:100BC00080EB94E00E94EA0282E40E94B30200E813
:100BD00015E280E00E94930201501109D1F70E94B2
:100BE000000380E090E00E94EA028BE191E00E9425
:100BF000CB02E0913902F0913A0282E08083E091E9
:100C00003502F09136021082E0913702F0913802FD
:100C10008FEC808310924102E0913D02F0913E0200
:100C200086E08083E0913B02F0913C02808180610C
:100C30008083E0913B02F0913C0280818860808358
:100C4000E0913B02F0913C02808180688083E091DA
:100C50003B02F0913C0280818F7D80838BE191E0AB
:100C60000E9481038AE0882E912CA12CB12C222491
:100C7000239499E2392E89E292E00E944C01892B5B
:100C800009F4B7C11A8219821C821B821E821D823E
:100C900060E070E0CE0101960E94C70329813A818D
:100CA00081110DC02115310519F0C9010E94C80A32
:100CB0001A8219821E821D821C821B8222C01E8201
:100CC0001D826AE171E0C9010E94380C1AC08AA332
:100CD0001BA20D811E810F5F1F4FB801CE0101962F
:100CE0000E94C703882369F029813A818D819E8102
:100CF000BE016E5D7F4F820F931F0E94380C1E83D2
:100D00000D830E94A60097FFE2CFC980DA80C1144C
:100D1000D104E1F16D807E8061147104B9F1860126
:100D200078010F5F1F4FF7018081082E000C990B8F
:100D30000E94FC07892BA1F78301015011090C0DBA
:100D40001D1DF8018081082E000C990B0E94FC07E4
:100D5000892B79F4A8014F5F5F4F4E195F095E83BD
:100D60004D83CE14DF0458F4B701C6010E942F0C46
:100D700006C00E151F0570F301501109E2CFE9817D
:100D8000FA818D819E81E80FF91F108283E391E043
:100D90000E946F038D819E81889730F0E981FA81EE
:100DA000309711F067A101C060E0E0912902F09155
:100DB0002A020190F081E02D89E292E0099588E114
:100DC00091E00E946F035090240251100E94B303DF
:100DD0006D817E810091220210912302693271059A
:100DE00008F495C080E090E00E940A0820E030E01E
:100DF00040E252E40E9463096B017C010E94D50924
:100E0000072E000C880B990B0E940C089B01AC016B
:100E1000C701B6010E94050820E030E040E85FE32A
:100E2000811103C0C701B60108C0C701B6010E9405
:100E3000F70820E030E040E85FE30E94F6080E94F7
:100E4000D5093B01309EB001319E700D11246B5AC3
:100E50007E4FCE0101960E948F03C12CD12CC61467
:100E6000D7040CF05FC0552019F00E94B30309C0ED
:100E70008091220290912302019690932302809305
:100E800022024D815E8141155105C1F04832510564
:100E900010F4BA0102C068E270E089819A81461BB1
:100EA000570B5E834D83680F791F0E943F0CE981C9
:100EB000FA818D819E81E80FF91F108280912202B4
:100EC00090912302389E8001399E100D1124C80193
:100ED0008B5A9E4F7C010097B1F00D811E81011548
:100EE000110511F4FC010EC00832110510F008E2E2
:100EF00010E069817A81A801C7010E943F0CF701C7
:100F0000E00FF11F1082FFEFCF1ADF0AA8CF309E4B
:100F1000B001319E700D11246B5A7E4FCE010196A7
:100F20000E948F0351100DC08091220290912302E4
:100F300001969093230280932202049711F4209249
:100F4000240289819A810E94C80A0E94000305E553
:100F500011E0E12CF12CC7010E94EA02C8010E94B5
:100F6000CB0288E2E80EF11C075D1F4F98ECE916F2
:100F7000F10489F780922D0290922E02A0922F0206
:100F8000B092300205E511E0412C512C320119A23A
:100F9000A3019201FE01B1967F01CA01B9012AE0C5
:100FA00030E040E050E00E940B0A605DF701629380
:100FB0007F01211531054105510579F7CF010E94C7
:100FC0006F0380E491E00E946F03C8010E948103D7
:100FD000075D1F4FFFEF4F1A5F0A6F0A7F0A85E018
:100FE000481651046104710491F683E491E00E9473
:100FF00081030E94EC013FCE91110C946B0880326A
:1010000019F089508550C8F708950E94470808F4E0
:1010100081E00895E89409C097FB3EF4909580958F
:10102000709561957F4F8F4F9F4F9923A9F0F92FAE
:1010300096E9BB279395F695879577956795B7952C
:10104000F111F8CFFAF4BB0F11F460FF1BC06F5F12
:101050007F4F8F4F9F4F16C0882311F096E911C024
:10106000772321F09EE8872F762F05C0662371F045
:1010700096E8862F70E060E02AF09A95660F771F59
:10108000881FDAF7880F9695879597F90895990F35
:101090000008550FAA0BE0E8FEEF16161706E80742
:1010A000F907C0F012161306E407F50798F0621B63
:1010B000730B840B950B39F40A2661F0232B242B38
:1010C000252B21F408950A2609F4A140A6958FEF57
:1010D000811D811D089599278827089597F99F6795
:1010E00080E870E060E008959FEF80EC08950024B0
:1010F0000A941616170618060906089500240A947D
:1011000012161306140605060895092E0394000C02
:1011100011F4882352F0BB0F40F4BF2B11F460FF91
:1011200004C06F5F7F4F8F4F9F4F089557FD9058BA
:10113000440F551F59F05F3F71F04795880F97FB9B
:10114000991F61F09F3F79F0879508951216130655
:101150001406551FF2CF4695F1DF08C01616170684
:101160001806991FF1CF86957105610508940895B9
:10117000E894BB2766277727CB0197F908952F922C
:101180003F924F925F926F927F928F929F92AF9217
:10119000BF92CF92DF92EF92FF920F931F93CF9364
:1011A000DF93CDB7DEB7CA1BDB0B0FB6F894DEBFFB
:1011B0000FBECDBF09942A88398848885F846E8421
:1011C0007D848C849B84AA84B984C884DF80EE806B
:1011D000FD800C811B81AA81B981CE0FD11D0FB674
:1011E000F894DEBF0FBECDBFED0108955058BB2768
:1011F000AA270E940E090C9485080E94770838F0EF
:101200000E947E0820F039F49F3F19F426F40C94D4
:1012100074080EF4E095E7FB0C946E08E92F0E9429
:10122000960858F3BA17620773078407950720F0EA
:1012300079F4A6F50C94B8080EF4E0950B2EBA2FAD
:10124000A02D0B01B90190010C01CA01A0011124CC
:10125000FF27591B99F0593F50F4503E68F11A1678
:10126000F040A22F232F342F4427585FF3CF469509
:1012700037952795A795F0405395C9F77EF41F162B
:10128000BA0B620B730B840BBAF09150A1F0FF0FF5
:10129000BB1F661F771F881FC2F70EC0BA0F621FE1
:1012A000731F841F48F4879577956795B795F795D1
:1012B0009E3F08F0B0CF9395880F08F09927EE0F66
:1012C0009795879508950E9477090C9485080E9448
:1012D0007E0858F00E94770840F029F45F3F29F01B
:1012E0000C946E0851110C94B9080C9474080E9467
:1012F000960868F39923B1F3552391F3951B550B89
:10130000BB27AA2762177307840738F09F5F5F4FD8
:10131000220F331F441FAA1FA9F335D00E2E3AF017
:10132000E0E832D091505040E695001CCAF72BD02F
:10133000FE2F29D0660F771F881FBB1F2617370780
:101340004807AB07B0E809F0BB0B802DBF01FF27B2
:1013500093585F4F3AF09E3F510578F00C946E0819
:101360000C94B9085F3FE4F3983ED4F386957795E3
:101370006795B795F7959F5FC9F7880F911D96956B
:10138000879597F90895E1E0660F771F881FBB1FC7
:10139000621773078407BA0720F0621B730B840B74
:1013A000BA0BEE1F88F7E09508950E94DC09689457
:1013B000B1110C94B90808950E949E0888F09F57B7
:1013C00098F0B92F9927B751B0F0E1F0660F771F69
:1013D000881F991F1AF0BA95C9F714C0B13091F05F
:1013E0000E94B808B1E008950C94B808672F782FD0
:1013F0008827B85F39F0B93FCCF386957795679524
:10140000B395D9F73EF490958095709561957F4F8F
:101410008F4F9F4F0895A1E21A2EAA1BBB1BFD01FF
:101420000DC0AA1FBB1FEE1FFF1FA217B307E407C3
:10143000F50720F0A21BB30BE40BF50B661F771F1B
:10144000881F991F1A9469F76095709580959095FB
:101450009B01AC01BD01CF010895EE0FFF1F059068
:10146000F491E02D0994CF93DF938230910510F42D
:1014700082E090E0E091D502F091D60220E030E0E9
:10148000C0E0D0E0309711F14081518148175907F1
:10149000C0F04817590761F482819381209719F0B1
:1014A0009B838A832BC09093D6028093D50226C05B
:1014B0002115310519F04217530718F49A01BE019E
:1014C000DF01EF010280F381E02DDCCF2115310532
:1014D00009F1281B390B2430310590F412968D91B7
:1014E0009C9113976115710521F0FB019383828311
:1014F00004C09093D6028093D502FD01329644C079
:10150000FD01E20FF31F81939193225031092D9336
:101510003C933AC02091D3023091D402232B41F462
:1015200020910201309103013093D4022093D30221
:1015300020910001309101012115310541F42DB7B1
:101540003EB74091040150910501241B350BE091F9
:10155000D302F091D402E217F307A0F42E1B3F0B45
:101560002817390778F0AC014E5F5F4F2417350715
:1015700048F04E0F5F1F5093D4024093D3028193E3
:10158000919302C0E0E0F0E0CF01DF91CF910895A8
:101590000F931F93CF93DF93009709F48CC0FC0146
:1015A0003297138212820091D5021091D602011552
:1015B000110581F420813181820F931F2091D30284
:1015C0003091D4022817390779F5F093D402E093CB
:1015D000D30271C0D80140E050E0AE17BF0750F40D
:1015E00012962D913C911397AD012115310509F10A
:1015F000D901F3CF9D01DA013383228360817181A8
:10160000860F971F8217930769F4EC0128813981AF
:10161000260F371F2E5F3F4F318320838A819B81A6
:1016200093838283452B29F4F093D602E093D5026D
:1016300042C01396FC93EE931297ED014991599194
:101640009E01240F351FE217F30771F48081918109
:10165000840F951F029611969C938E93828193819D
:1016600013969C938E931297E0E0F0E0D8011296C7
:101670008D919C911397009719F0F8018C01F6CF8A
:101680008D919C9198012E5F3F4F820F931F209167
:10169000D3023091D4022817390769F4309729F41E
:1016A0001092D6021092D50202C0138212821093B9
:1016B000D4020093D302DF91CF911F910F9108952F
:1016C000A0E0B0E0E6E6FBE00C94C308EC01009774
:1016D00021F4CB010E94330AB8C0FC01E60FF71FCA
:1016E0009C0122503109E217F30708F4ACC0D9017C
:1016F0000D911C91119706171707B0F005301105D1
:1017000008F49FC0C80104978617970708F499C08A
:1017100002501109061B170B019311936D937C93D3
:10172000CF010E94C80A8DC05B01A01AB10A4C010A
:10173000800E911EA091D502B091D60240E050E0FB
:10174000E12CF12C109709F44AC0A815B905D1F580
:101750006D907C901197630182E0C80ED11CCA1471
:10176000DB0480F1A3014A195B096A0182E0C80E1B
:10177000D11C1296BC9012971396AC91B5E0CB1683
:10178000D10440F0B282A38351834083D9016D9389
:101790007C930AC00E5F1F4FC301800F911FF90198
:1017A00091838083EB2DFA2FE114F10431F0D701FE
:1017B0001396FC93EE93129744C0F093D602E093F5
:1017C000D5023FC08D919C9111974817590708F495
:1017D000AC017D0112960D90BC91A02DB3CF8091EC
:1017E000D3029091D40288159905E1F44617570762
:1017F000C8F48091000190910101009741F48DB7E8
:101800009EB74091040150910501841B950BE81788
:10181000F907C8F4F093D402E093D302F90171837D
:1018200060830FC0CB010E94330A7C01009759F0FE
:10183000A801BE010E942F0CCE010E94C80AC70158
:1018400004C0CE0102C080E090E0CDB7DEB7EEE08C
:101850000C94DF0881E090E0F8940C944E0CFB01AE
:10186000DC0102C001900D9241505040D8F708951C
:10187000FB01DC0101900D920020E1F70895FB01CE
:10188000DC014150504048F001900D920020C9F712
:1018900001C01D9241505040E0F70895F894FFCFE9
:1018A0000000D7028000000000008301EC001B0153
:1018B000CA014C012A013E010D0A00436F6E6E659C
:1018C0006374696F6E2065737461626C69736865B7
:1018D000642100506F736C65646E69207A6E616B71
:1018E0003A20000A2D2D2D2D2D2D2D2D2D2D0000D2
:107E0000112484B714BE81FFF0D085E080938100F7
:107E100082E08093C00088E18093C10086E0809377
:107E2000C20080E18093C4008EE0C9D0259A86E02C
:107E300020E33CEF91E0309385002093840096BBD3
:107E4000B09BFECF1D9AA8958150A9F7CC24DD24C4
:107E500088248394B5E0AB2EA1E19A2EF3E0BF2EE7
:107E6000A2D0813461F49FD0082FAFD0023811F036
:107E7000013811F484E001C083E08DD089C08234E0
:107E800011F484E103C0853419F485E0A6D080C0E4
:107E9000853579F488D0E82EFF2485D0082F10E0AE
:107EA000102F00270E291F29000F111F8ED06801E7
:107EB0006FC0863521F484E090D080E0DECF843638
:107EC00009F040C070D06FD0082F6DD080E0C81688
:107ED00080E7D80618F4F601B7BEE895C0E0D1E017
:107EE00062D089930C17E1F7F0E0CF16F0E7DF06D8
:107EF00018F0F601B7BEE89568D007B600FCFDCFD4
:107F0000A601A0E0B1E02C9130E011968C91119780
:107F100090E0982F8827822B932B1296FA010C0160
:107F200087BEE89511244E5F5F4FF1E0A038BF0790
:107F300051F7F601A7BEE89507B600FCFDCF97BE46
:107F4000E89526C08437B1F42ED02DD0F82E2BD052
:107F50003CD0F601EF2C8F010F5F1F4F84911BD097
:107F6000EA94F801C1F70894C11CD11CFA94CF0C13
:107F7000D11C0EC0853739F428D08EE10CD085E9AC
:107F80000AD08FE07ACF813511F488E018D01DD067
:107F900080E101D065CF982F8091C00085FFFCCF94
:107FA0009093C60008958091C00087FFFCCF809118
:107FB000C00084FD01C0A8958091C6000895E0E648
:107FC000F0E098E1908380830895EDDF803219F02E
:107FD00088E0F5DFFFCF84E1DECF1F93182FE3DFCA
:107FE0001150E9F7F2DF1F91089580E0E8DFEE27F6
:047FF000FF270994CA
:027FFE00040479
:0400000300007E007B
:00000001FF